:020000040800F2
:100000000808002089010008E1010008E10100085A
:10001000E1010008E1010008E10100080000000022
:10002000000000000000000000000000E1010008E6
:10003000E101000800000000E1010008E101000802
:10004000E1010008E1010008E1010008E101000808
:10005000E1010008E1010008E1010008E1010008F8
:10006000E1010008E1010008E1010008E1010008E8
:10007000E1010008E1010008E1010008E1010008D8
:10008000E1010008E1010008E1010008E1010008C8
:10009000E1010008E1010008E1010008E1010008B8
:1000A000E1010008E1010008E1010008E1010008A8
:1000B000E1010008E1010008E1010008E101000898
:1000C000E1010008E1010008E1010008E101000888
:1000D000E1010008E1010008E1010008E101000878
:1000E000E1010008E1010008E1010008E101000868
:1000F000E1010008E1010008E1010008E101000858
:10010000E1010008E1010008E1010008E101000847
:10011000E1010008E1010008E1010008E101000837
:10012000E1010008E1010008E1010008E101000827
:10013000E1010008E1010008E1010008E101000817
:10014000E1010008E1010008E1010008E101000807
:10015000E1010008E1010008E1010008E1010008F7
:10016000E1010008E1010008E1010008E1010008E7
:10017000E1010008E1010008E1010008E1010008D7
:10018000E1010008E101000880B582B000AF0F4B2B
:100190007B600F4B3B6007E03B681A1D3A607A6852
:1001A000111D796012681A603B680A4A9342F3D3C2
:1001B00009480A494FF000028842B8BF40F8042BB2
:1001C000FADB00F0D9F80837BD4680BDC00B000847
:1001D0000000002008000020080000200800002087
:1001E00080B400AFFEE700BF80B500AF144800F058
:1001F0006DFA144800F06AFA00BF1148022100F0BD
:1002000083FA0346002BF8D00E48022100F07CFA56
:100210000346002BF1D00A4800F068FA034618465E
:1002200000F076FC0246084B1A60064800F05EFAC1
:100230000346184600F06CFC0246044B1A60DBE7EC
:1002400000200140002101400000002004000020A7
:1002500080B58CB000AF0120012100F099F84FF477
:100260008070012100F0B2F80223BB62032387F8FB
:100270002C30002387F82F3007F12803184819463F
:1002800000F05CFA0023BB610023FB6100233B62AA
:1002900000237B6207F11803184600F009F90023D8
:1002A0003B6000233B7101237B710023FB60002333
:1002B000BB6000233B6101233B753B46094819465F
:1002C00000F0A2F8074801210122042300F034F9CC
:1002D0000448012100F014F93037BD4680BD00BF4D
:1002E000000002400020014080B58CB000AF4FF408
:1002F0000070012100F06AF80423BB62032387F831
:100300002C30002387F82F3007F1280318481946AE
:1003100000F014FA0023BB610023FB6100233B6261
:1003200000237B6207F11803184600F0C1F8002390
:100330003B6000233B7101237B710023FB600023A2
:10034000BB6000233B6101233B753B4609481946CE
:1003500000F05AF8074802210122042300F0ECF8CB
:100360000448012100F0CCF83037BD4680BD00BF05
:10037000000002400021014080B500AF00F06CFA9F
:10038000FFF766FFFFF7B0FFFFF72EFF184680BDAF
:1003900080B483B000AF78600B46FB70FB78002B15
:1003A00006D00949084B1A6B7B6813430B6306E0C0
:1003B0000549054B1A6B7B68DB4313400B630C3715
:1003C000BD465DF8047B70470038024080B483B0BE
:1003D00000AF78600B46FB70FB78002B06D0094914
:1003E000084B5A6C7B6813434B6406E00549054B88
:1003F0005A6C7B68DB4313404B640C37BD465DF899
:10040000047B70470038024080B485B000AF78604C
:1004100039600023FB600023FB727B685B68FB6034
:10042000FB6823F0407323F48073FB603B681B7907
:100430001A023B681B681343FA681343FB607B682E
:10044000FA685A607B689B68FB60FA68174B134038
:10045000FB603B681A693B68DB681A433B689B6832
:100460001A433B685B795B001343FA681343FB60F4
:100470007B68FA689A607B68DB6AFB60FB6823F440
:100480007003FB603B681B7D013BDAB2FB7A1343D0
:10049000FB72FB7A1B05FA681343FB607B68FA6802
:1004A000DA621437BD465DF8047B7047FDF7FFC084
:1004B00080B485B000AF78600023FB600E4B5B68B2
:1004C000FB60FA680D4B1340FB607B681A687B6821
:1004D0005B681A437B689B681A437B68DB6813433D
:1004E000FA681343FB60044AFB6853601437BD4647
:1004F0005DF8047B704700BF00230140E030FCFF43
:1005000080B483B000AF78600B46FB70FB78002BA3
:1005100006D07B689B6843F001027B689A6005E027
:100520007B689B6823F001027B689A600C37BD46AC
:100530005DF8047B704700BF80B485B000AF786081
:10054000084611461A460346FB700B46BB7013461D
:100550007B700023FB600023BB60FB78092B23D951
:100560007B68DB68FB60FB78A3F10A0213465B0043
:100570001344072202FA03F3BB60BB68DB43FA684B
:100580001340FB607978FB78A3F10A0213465B0005
:10059000134401FA03F3BB60FA68BB681343FB60C2
:1005A0007B68FA68DA601EE07B681B69FB60FA789A
:1005B00013465B001344072202FA03F3BB60BB68D7
:1005C000DB43FA681340FB607978FA7813465B00E6
:1005D000134401FA03F3BB60FA68BB681343FB6082
:1005E0007B68FA681A61BB78062B21D87B685B6B45
:1005F000FB60BB785A1E13469B0013441F2202FA6D
:1006000003F3BB60BB68DB43FA681340FB60F97817
:10061000BB785A1E13469B00134401FA03F3BB60D8
:10062000FA68BB681343FB607B68FA685A6347E06B
:10063000BB780C2B21D87B681B6BFB60BB78DA1F67
:1006400013469B0013441F2202FA03F3BB60BB68EE
:10065000DB43FA681340FB60F978BB78DA1F134676
:100660009B00134401FA03F3BB60FA68BB681343B1
:10067000FB607B68FA681A6322E07B68DB6AFB60D8
:10068000BB78A3F10D0213469B0013441F2202FA0C
:1006900003F3BB60BB68DB43FA681340FB60F97887
:1006A000BB78A3F10D0213469B00134401FA03F338
:1006B000BB60FA68BB681343FB607B68FA68DA6268
:1006C0001437BD465DF8047B704700BF80B483B02B
:1006D00000AF78607B689B6843F080427B689A60DB
:1006E0000C37BD465DF8047B704700BF80B483B013
:1006F00000AF78607B68DB6C9BB218460C37BD4658
:100700005DF8047B704700BF80B485B000AF7860AF
:100710000B46FB700023FB737B681A68FB78134061
:10072000002B02D00123FB7301E00023FB73FB7B52
:1007300018461437BD465DF8047B704780B487B017
:1007400000AF7860396000237B6100233B610023A8
:10075000FB6000237B6176E07B69012202FA03F3F0
:100760003B613B681A683B691340FB60FA683B6970
:100770009A4265D17B681A687B695B00194603233E
:100780008B40DB431A407B681A607B681A683B68C1
:100790001B7919467B695B0001FA03F31A437B68F6
:1007A0001A603B681B79012B03D03B681B79022B35
:1007B0002ED17B689A687B695B00194603238B40C6
:1007C000DB431A407B689A607B689A683B685B7978
:1007D00019467B695B0001FA03F31A437B689A6050
:1007E0007B685A687B699BB2194601238B40DB43C7
:1007F0001A407B685A607B685B683A689279114658
:100800007A6992B201FA02F292B21A437B685A6094
:100810007B68DA687B699BB25B00032101FA03F312
:10082000DB431A407B68DA607B68DA683B68DB7917
:1008300019467B695B0001FA03F31A437B68DA60AF
:100840007B6901337B617B690F2B85D91C37BD46E2
:100850005DF8047B704700BF80B500AF114A114BB3
:100860001B6843F0010313600E4B00229A600D4A8F
:100870000C4B1B6823F0847323F480331360094B03
:10088000094A5A60074A074B1B6823F48023136008
:10089000044B0022DA6000F00BF8044B4FF00062CA
:1008A0009A6080BD003802401030002400ED00E066
:1008B00080B483B000AF00237B6000233B60354AE7
:1008C000344B1B6843F480331360324B1B6803F4D2
:1008D00000333B607B6801337B603B68002B03D1B6
:1008E0007B68B3F5A06FF0D12A4B1B6803F400338B
:1008F000002B02D001233B6001E000233B603B68FA
:10090000012B42D1234A234B1B6C43F080531364C9
:10091000214A214B1B6843F4804313601D4A1D4B41
:100920009B6893601B4A1B4B9B6843F40043936096
:10093000184A184B9B6843F4A0539360154B174A11
:100940005A60144A134B1B6843F08073136000BF56
:10095000104B1B6803F00073002BF9D0104B40F2D2
:1009600005621A600B4A0B4B9B6823F003039360EC
:10097000084A084B9B6843F00203936000BF054B95
:100980009B6803F00C03082BF9D10C37BD465DF8CA
:10099000047B704700380240007000401954400743
:1009A000003C024080F0004002E000BF81F00041C6
:1009B00042001FBF5FEA410392EA030F7FEA226C05
:1009C0007FEA236C6AD04FEA1262D2EB1363C1BF95
:1009D000D218414048404140B8BF5B42192B88BF04
:1009E000704710F0004F40F4000020F07F4018BF27
:1009F000404211F0004F41F4000121F07F4118BF47
:100A0000494292EA030F3FD0A2F1010241FA03FCEE
:100A100010EB0C00C3F1200301FA03F100F00043D6
:100A200002D5494260EB4000B0F5000F13D3B0F19E
:100A3000807F06D340084FEA310102F10102FE2A0D
:100A400051D2B1F1004F40EBC25008BF20F001007D
:100A500040EA03007047490040EB000010F4000F2B
:100A6000A2F10102EDD1B0FA80FCACF1080CB2EBBE
:100A70000C0200FA0CF0AABF00EBC250524218431D
:100A8000BCBFD0401843704792F0000F81F40001C2
:100A900006BF80F400000132013BB5E74FEA410395
:100AA0007FEA226C18BF7FEA236C21D092EA030F01
:100AB00004D092F0000F08BF0846704790EA010F7B
:100AC0001CBF0020704712F07F4F04D1400028BFA8
:100AD00040F00040704712F100723CBF00F500008A
:100AE000704700F0004343F0FE4040F400007047C0
:100AF0007FEA226216BF08467FEA2363014642026C
:100B000006BF5FEA412390EA010F40F4800070477E
:100B10004FF0000304E000BF10F0004348BF404224
:100B20005FEA000C08BF704743F0964301464FF060
:100B300000001CE050EA010208BF70474FF00003BC
:100B40000AE000BF50EA010208BF704711F00043FD
:100B500002D5404261EB41015FEA010C02BF8446CD
:100B60000146002043F0B64308BFA3F18053A3F52C
:100B70000003BCFA8CF2083AA3EBC25310DB01FA73
:100B800002FC634400FA02FCC2F12002BCF1004FF7
:100B900020FA02F243EB020008BF20F00100704788
:100BA00002F1200201FA02FCC2F1200250EA4C00DC
:100BB00021FA02F243EB020008BF20EADC70704722
:080BC0000000C8420000C84219
:0400000508000000EF
:00000001FF
