:020000040800F2
:100000007008002021030008790300087903000824
:100010007903000879030008790300080000000054
:10002000000000000000000000000000790300084C
:100030007903000800000000790300087903000834
:1000400079030008790300087903000879030008A0
:1000500079030008790300081909000879030008EA
:100060007903000879030008790300087903000880
:100070007903000879030008790300087903000870
:100080007903000879030008790300087903000860
:100090007903000879030008790300087903000850
:1000A0007903000879030008790300087903000840
:1000B000790300088904000879030008790300081F
:1000C0007903000879030008790300087903000820
:1000D0007903000879030008790300088103000808
:1000E0007903000879030008790300087903000800
:1000F00079030008790300087903000879030008F0
:1001000079030008790300087903000879030008DF
:1001100079030008790300087903000879030008CF
:1001200079030008790300087903000879030008BF
:1001300079030008790300087903000879030008AF
:10014000790300087903000879030008790300089F
:10015000790300087903000879030008790300088F
:10016000790300087903000879030008790300087F
:10017000790300087903000879030008790300086F
:10018000790300087903000890B484B000AF0346F7
:100190000A46FB711346BB710023FB60BB7903F079
:1001A00003039B000F2202FA03F3FB601649BB799D
:1001B0009B08DBB21846144ABB799B08DBB20233BA
:1001C00052F82320FB68DB431A40831C41F82320AC
:1001D0000D48BB799B08DBB21C460B4ABB799B08D8
:1001E000DBB2023352F82320F979BB7903F0030321
:1001F0009B0001FA03F31A43A31C40F82320103795
:10020000BD4690BC704700BF0038014080B483B049
:1002100000AF78600B467B807B88C3F308039AB2FB
:100220007B689A800C37BD465DF8047B704700BF41
:1002300080B485B000AF78600B467B800023FB73F1
:100240007B681B889AB27B8813409BB2002B02D03C
:100250000123FB7301E00023FB73FB7B184614377B
:10026000BD465DF8047B704780B487B000AF78600E
:100270000B467B800023FB6000237B610023BB6077
:100280000023FB747B88DBB25B09DBB2BB607B883D
:1002900003F01F037B617B69012202FA03F37B6198
:1002A000BB68012B07D17B689B899BB21A467B698F
:1002B00013407B6111E0BB68022B07D17B681B8A6E
:1002C0009BB21A467B6913407B6106E07B689B8A80
:1002D0009BB21A467B6913407B617B881B0A9BB2E9
:1002E000FB60FB68012202FA03F3FB607B681B885A
:1002F0009BB21A46FB681340FB607B69002B05D05C
:10030000FB68002B02D00123FB7401E00023FB7487
:10031000FB7C18461C37BD465DF8047B704700BF68
:1003200080B582B000AF0F4B7B600F4B3B6007E0A6
:100330003B681A1D3A607A68111D796012681A606C
:100340003B680A4A9342F3D309480A494FF0000236
:100350008842B8BF40F8042BFADB00F009FB0837ED
:10036000BD4680BD53260008000000201800002074
:10037000180000207000002080B400AFFEE700BF2E
:1003800080B500AF084840F22551FFF76DFF0346E6
:10039000002B07D000BF04484021FFF749FF034668
:1003A000002BF8D080BD00BF0048004080B582B06F
:1003B00000AF0346FB7100BF07488021FFF738FFFD
:1003C0000346002BF8D0FB799BB203481946FFF790
:1003D0001DFF0837BD4680BD0048004080B582B093
:1003E00000AF786006E07B685A1C7A601B7818467C
:1003F000FFF7DCFF7B681B78002BF4D10837BD4684
:1004000080BD00BF80B584B000AF0220012100F0A4
:10041000E5FA42F2CF03BB6040F2E733BB80002332
:10042000BB810023FB803B1D0548194601F0BAFB48
:100430000348012101F020FC1037BD4680BD00BFFC
:100440000004004080B582B000AF4FF4C06001F0FE
:1004500037FB1D233B7100237B710023BB710123FC
:10046000FB713B1D184601F03DFB0648012101F0E0
:1004700071FC04480121012201F01EFC0837BD4631
:1004800080BD00BF00040040B0B586B004AF8C480A
:10049000012101F035FC0346002B00F0058100BF6F
:1004A0008848022100F056FC0346002BF8D086480D
:1004B000022100F04FFC0346002BF1D0814800F0F0
:1004C0003BFC03461B01814A1360804B1B684FF6BF
:1004D000DC72934203DD7D4B4FF6DC721A607A4882
:1004E00000F02AFC0346184601F096FD02460B4632
:1004F000104619466EA3D3E9002301F0F3FD02462E
:100500000B46104619464FF00002714B01F036FCC5
:1005100002460B461046194601F0F6FF02466D4BA7
:100520001A606C4B1B68B3F5166F03DD694B4FF413
:1005300016621A60674B1B68002B02DA654B0022BB
:100540001A60644B1B68A3F59663184601F064FDBE
:1005500002460B461046194657A3D3E9002301F083
:10056000C1FD02460B461046194601F0CDFF034679
:100570007B607B685A2B01DD5A237B607B6813F11B
:100580005A0F02DA6FF059037B60504B1B68524AD6
:1005900082FB03121A441213DB17D31A3B603A682A
:1005A00013469B0013445B003B604C4B1B68002BC5
:1005B00032D14B4B1B68012B19D100F0EBFF49489E
:1005C00049493A6800F08CFE484849497A6800F089
:1005D00087FE0020434900F09DFF0120434900F0C1
:1005E00099FF44484FF4804101F00EF958E000F0C3
:1005F000D1FF3C4840493A6800F072FE3B483C4914
:100600007A6800F06DFE0020364900F083FF01207B
:10061000364900F07FFF43E0314B1B68012B15D1B9
:10062000304836493A6800F05BFE30483449354A74
:100630007B6800F055FE00F0ADFF0020294900F076
:1006400069FF0120294900F065FF14E025482E4983
:100650003A6800F045FE254829492A4A7B6800F09F
:100660003FFE00F097FF00201E4900F053FF0120DD
:100670001E4900F04FFF174B1D68144B1C68184BA8
:100680001B684FF6DC7200920193012302931F480E
:100690001F492A46234600F023FE1C48FFF79EFE12
:1006A0000748012101F056FB0837BD46B0BD00BF29
:1006B000333333333333E33F9A99999999992A40E5
:1006C0000004004000200140002101400000002003
:1006D00000003D40040000202B8316A024000020D1
:1006E0001000002030000020E42500085000002009
:1006F000F4250008000C024000260008142600081B
:100700002426000828000020382600086000002069
:100710004826000880B58CB000AF0120012100F010
:100720003FF94FF48070012100F076F90223BB629B
:10073000032387F82C30002387F82F3007F1280394
:100740001948194600F092FF0023BB610023FB61AA
:1007500000233B6200237B6207F11803184600F078
:10076000CDF900233B6000233B7101237B71002303
:10077000FB600023BB6000233B6101233B753B46CC
:100780000A48194600F066F90848012101220423AD
:1007900000F0F8F90548012100F0D8F9034800F00D
:1007A000BBFA3037BD4680BD00000240002001404A
:1007B00080B58CB000AF4FF40070012100F02CF92F
:1007C0000423BB62032387F82C30002387F82F30E3
:1007D00007F128031948194600F048FF0023BB61C0
:1007E0000023FB6100233B6200237B6207F11803B7
:1007F000184600F083F900233B6000233B7101237E
:100800007B710023FB600023BB6000233B6101235D
:100810003B753B460A48194600F01CF9084802217E
:100820000122042300F0AEF90548012100F08EF901
:10083000034800F071FA3037BD4680BD0000024029
:100840000021014080B582B000AF0820012100F0F6
:10085000A7F84FF470433B600023BB7103237B7107
:100860000023FB7101233B713B460348194600F00E
:10087000FDFE0837BD4680BD000C024080B582B049
:1008800000AF0120012100F08BF801233B60002321
:100890003B710023BB7102237B710023FB713B463C
:1008A0000548194600F0E2FE3B460348194600F0B1
:1008B000DDFE0837BD4680BD0000024080B582B035
:1008C00000AF01233B6000233B7108237B710123B0
:1008D000BB713B46184601F04FF800200121FFF79D
:1008E00053FC0837BD4680BD80B582B000AF4FF4E1
:1008F0008040012100F090F806233B7101237B71B9
:100900000123BB710123FB713B1D184601F0EAF87E
:100910000837BD4680BD00BF80B582B000AF002360
:100920007B6002E07B6801337B607B6842F20F7280
:100930009342F7DD012001F091F80346002B11D01E
:100940000A4B1B68012B03D1084B00221A6006E0FA
:10095000064B1B68002B02D1044B01221A600120B8
:1009600001F0A0F80837BD4680BD00BF1000002090
:1009700080B500AF00F05AFF00F012FEFFF7CAFE8C
:10098000FFF716FFFFF75EFFFFF73CFDFFF75AFD8D
:10099000FFF774FFFFF7A8FFFFF790FFFEE700BF28
:1009A00080B483B000AF78600B46FB70FB78002BFF
:1009B00006D00949084B1A6B7B6813430B6306E0AA
:1009C0000549054B1A6B7B68DB4313400B630C37FF
:1009D000BD465DF8047B70470038024080B483B0A8
:1009E00000AF78600B46FB70FB78002B06D00949FE
:1009F000084B1A6C7B6813430B6406E00549054BF2
:100A00001A6C7B68DB4313400B640C37BD465DF802
:100A1000047B70470038024080B483B000AF786038
:100A20000B46FB70FB78002B06D00949084B5A6C2B
:100A30007B6813434B6406E00549054B5A6C7B68A1
:100A4000DB4313404B640C37BD465DF8047B7047B5
:100A50000038024080B485B000AF78603960002370
:100A6000FB600023FB727B685B68FB60FB6823F024
:100A7000407323F48073FB603B681B791A023B6868
:100A80001B681343FA681343FB607B68FA685A607B
:100A90007B689B68FB60FA68174B1340FB603B6800
:100AA0001A693B68DB681A433B689B681A433B68DA
:100AB0005B795B001343FA681343FB607B68FA6859
:100AC0009A607B68DB6AFB60FB6823F47003FB6061
:100AD0003B681B7D013BDAB2FB7A1343FB72FB7A66
:100AE0001B05FA681343FB607B68FA68DA62143707
:100AF000BD465DF8047B7047FDF7FFC080B485B04C
:100B000000AF78600023FB600E4B5B68FB60FA6807
:100B10000D4B1340FB607B681A687B685B681A4367
:100B20007B689B681A437B68DB681343FA6813434E
:100B3000FB60044AFB6853601437BD465DF8047BD4
:100B4000704700BF00230140E030FCFF80B483B059
:100B500000AF78600B46FB70FB78002B06D07B68FB
:100B60009B6843F001027B689A6005E07B689B68A4
:100B700023F001027B689A600C37BD465DF8047B68
:100B8000704700BF80B485B000AF7860084611465A
:100B90001A460346FB700B46BB7013467B7000235E
:100BA000FB600023BB60FB78092B23D97B68DB68E3
:100BB000FB60FB78A3F10A0213465B001344072293
:100BC00002FA03F3BB60BB68DB43FA681340FB60C7
:100BD0007978FB78A3F10A0213465B00134401FA0B
:100BE00003F3BB60FA68BB681343FB607B68FA6879
:100BF000DA601EE07B681B69FB60FA7813465B00D5
:100C00001344072202FA03F3BB60BB68DB43FA68B4
:100C10001340FB607978FA7813465B00134401FABD
:100C200003F3BB60FA68BB681343FB607B68FA6838
:100C30001A61BB78062B21D87B685B6BFB60BB78A5
:100C40005A1E13469B0013441F2202FA03F3BB6093
:100C5000BB68DB43FA681340FB60F978BB785A1E27
:100C600013469B00134401FA03F3BB60FA68BB68A8
:100C70001343FB607B68FA685A6347E0BB780C2B30
:100C800021D87B681B6BFB60BB78DA1F13469B0087
:100C900013441F2202FA03F3BB60BB68DB43FA680C
:100CA0001340FB60F978BB78DA1F13469B001344AE
:100CB00001FA03F3BB60FA68BB681343FB607B680F
:100CC000FA681A6322E07B68DB6AFB60BB78A3F1F9
:100CD0000D0213469B0013441F2202FA03F3BB606C
:100CE000BB68DB43FA681340FB60F978BB78A3F17B
:100CF0000D0213469B00134401FA03F3BB60FA682C
:100D0000BB681343FB607B68FA68DA621437BD4640
:100D10005DF8047B704700BF80B483B000AF78609B
:100D20007B689B6843F080427B689A600C37BD46C5
:100D30005DF8047B704700BF80B483B000AF78607B
:100D40007B68DB6C9BB218460C37BD465DF8047BB4
:100D5000704700BF80B485B000AF78600B46FB7071
:100D60000023FB737B681A68FB781340002B02D0CA
:100D70000123FB7301E00023FB73FB7B1846143750
:100D8000BD465DF8047B704780B483B000AF7860E7
:100D90000B46FB707B68FA781A70012318460C37F3
:100DA000BD465DF8047B704780B485B000AF7860C5
:100DB00039600023FB600AE07B685A1C7A603A685D
:100DC000511C396012781A70FB680133FB603B6874
:100DD0001B78002BF0D1FB6818461437BD465DF830
:100DE000047B704780B586B000AFF8607A603B60E6
:100DF0000B46FB7200237B617B68013B7B603B6899
:100E0000092B10D93B681E4AA2FB0323DB08FA7AA0
:100E1000F86811467A68FFF7E5FF78617B69FA6840
:100E20001344FB6011E00DE0FB7AF8681946FFF708
:100E3000ABFFFB680133FB607B6901337B617B683F
:100E4000013B7B607B68002BEEDC39680C4BA3FB1D
:100E50000123DA0813469B0013445B00CA1AD3B27D
:100E60003033DBB2F8681946FFF78EFF02467B6924
:100E700013447B617B6918461837BD4680BD00BFAF
:100E8000CDCCCCCC90B587B000AFF8607A603B6039
:100E90000B46FB7200237B613B68002B03DA3B6847
:100EA0005B423B6101E03B683B617B68013B7B60EF
:100EB0003B69092B25D93B68002B0FDA3B69314A86
:100EC000A2FB0323DB085B421C46FB7AF868194649
:100ED0007A682346FFF7D6FF78610DE03B69294A1F
:100EE000A2FB0323DB081C46FB7AF86819467A68E4
:100EF0002346FFF7C7FF78617B69FA681344FB60FC
:100F000025E03B68002B02DA7B68013B7B600DE04B
:100F1000FB7AF8681946FFF737FFFB680133FB607F
:100F20007B6901337B617B68013B7B607B68002BC5
:100F3000EEDC3B68002B0ADAF8682D21FFF724FF6E
:100F400002467B6913447B61FB680133FB603969AE
:100F50000C4BA3FB0123DA0813469B0013445B00F0
:100F6000CA1AD3B23033DBB2F8681946FFF70CFF68
:100F700002467B6913447B617B6918461C37BD467A
:100F800090BD00BFCDCCCCCC90B589B002AFF8609D
:100F90007A601A460B46FB721346BB7200237B61D4
:100FA0007B68013B7B60BB6A1B09002B13D0BB6ACB
:100FB0001B09FA7ABC7A0093F86811467A682346CE
:100FC000FFF7E2FF02467B6913447B617B69FA68A5
:100FD0001344FB6011E00DE0FB7AF8681946FFF757
:100FE000D3FEFB680133FB607B6901337B617B6867
:100FF000013B7B607B68002BEEDCBB6A03F00F03D8
:10100000092B0BD8BB6ADBB203F00F03DBB2303322
:10101000DBB2F8681946FFF7B7FE19E0BB7A002B80
:101020000BD0BB6ADBB203F00F03DBB23733DBB2AA
:10103000F8681946FFF7A8FE0AE0BB6ADBB203F0C6
:101040000F03DBB25733DBB2F8681946FFF79CFE9B
:101050007B6901337B617B6918461C37BD4690BDB7
:1010600090B58BB002AFF860B9607A603B60002346
:10107000BB6100237B61FB68002B02D0FB68002270
:101080001A70FCE07B681B78252B0BD0FB685A1C80
:10109000FA607A68511C796012781A707B690133A2
:1010A0007B61ECE07B6801331B78252B0BD1FB685F
:1010B0005A1CFA6025221A707B6802337B607B69B8
:1010C00001337B61DBE02023FB770023BB777B6868
:1010D00001337B607B681B78302B04D13023FB7796
:1010E0007B6801337B600EE0BB7F1A46920013449D
:1010F0005B00DAB27B681B781344DBB2303BBB7712
:101100007B6801337B607B681B782F2B03D97B685E
:101110001B78392BE8D9BA7F7B6913441A46BB6820
:101120009A4205D9BB68DAB27B69DBB2D31ABB77C6
:101130007B681B78583B202B00F2938001A252F869
:1011400023F000BF1B12000863120008631200089E
:10115000631200086312000863120008631200089B
:10116000631200086312000863120008631200088B
:101170004D120008C911000863120008631200082C
:101180006312000863120008C91100086312000806
:10119000631200086312000863120008631200085B
:1011A000631200086312000863120008631200084B
:1011B0003912000863120008E311000863120008E6
:1011C00063120008FD110008BC7F3B681A1D3A60DD
:1011D0001B68FA7FF86811462246FFF753FEB86194
:1011E00042E0BC7F3B681A1D3A601B68FA7FF868D2
:1011F00011462246FFF7F6FDB86135E0BC7F3B683B
:101200001A1D3A601B68FA7F0093F868114622465F
:101210000023FFF7B9FEB86126E0BC7F3B681A1DCA
:101220003A601B68FA7F0093F86811462246012352
:10123000FFF7AAFEB86117E03B681A1D3A601B6809
:10124000F8681946FFF7B0FDB8610DE03B681A1D5C
:101250003A601B68DBB2F8681946FFF795FDB86184
:1012600002E04FF0FF3325E07B6801337B60BB6910
:10127000FA681344FB607A69BB6913447B617B683D
:101280001B78002B04D07A69BB689A42FFF4FAAE4F
:101290007A69BB689A4203D2FB6800221A7008E0A0
:1012A000FB68013BFB60FB6800221A707B69013B15
:1012B0007B617B6918462437BD4690BD80B584B0FC
:1012C00000AFF860B9607A60F8686421BA687B683A
:1012D000FFF7C6FE034618461037BD4680BD00BF67
:1012E0000EB480B585B000AF786007F12003BB6015
:1012F0007868F969BA68FFF7E1FFF860FB6818469B
:101300001437BD46BDE8804003B0704780B582B059
:1013100000AF0346FB7118481021012200F05CFA6F
:10132000FB7903F00103DBB2134802211A4600F0F7
:1013300053FAFB7903F00203DBB20F4808211A4687
:1013400000F04AFAFB7903F00403DBB20A482021DB
:101350001A4600F041FAFB7903F00803DBB20648B5
:1013600080211A4600F038FA03481021002200F0CC
:1013700033FA0837BD4680BD000C024080B582B00C
:1013800000AF0023FB711D481021012200F024FA58
:101390001A48022100F0F8F90346DAB2FB79134348
:1013A000DBB2FB711548082100F0EEF903465B0043
:1013B000DAB2FB791343DBB2FB711048202100F055
:1013C000E3F903469B00DAB2FB791343DBB2FB710E
:1013D0000A48802100F0D8F90346DB00DAB2FB7935
:1013E0001343DBB2FB7105481021002200F0F4F931
:1013F000FB7918460837BD4680BD00BF000C02408F
:1014000080B582B000AF0023FB71194BAA221A608D
:10141000174B00221A711748154900F027F9154893
:101420000421012200F0D8F912480121002200F025
:10143000D3F9FFF7A3FF03461B01DAB2FB7913438D
:10144000DBB2FB71FFF79AFF03461A46FB791343A1
:10145000FB71074BAA221A60054B01221A7105483D
:10146000034900F003F9FB7918460837BD4680BDF3
:1014700048000020000C024080B582B000AF034657
:10148000FB7111480421002200F0A6F90E48012149
:10149000012200F0A1F9FB791B09DBB21846FFF726
:1014A00035FFFB7903F00F03DBB21846FFF72EFF81
:1014B00000BFFFF7A5FF0346DBB25BB2002BF8DBF2
:1014C0000837BD4680BD00BF000C024080B582B029
:1014D00000AF0346FB710E480521002200F07CF9A5
:1014E000FB791B09DBB21846FFF710FFFB7903F00D
:1014F0000F03DBB21846FFF709FF00BFFFF780FFBD
:101500000346DBB25BB2002BF8DB0837BD4680BD7B
:10151000000C024080B584B000AF03463960FB7117
:10152000386801F019F8F860FB685B08C3F108033C
:10153000BB60BB68DAB2FB791046194600F010F8C0
:1015400006E03B685A1C3A601B781846FFF794FF88
:101550003B681B78002BF4D11037BD4680BD00BF1F
:1015600080B582B000AF03460A46FB711346BB71DB
:10157000BB799B01DAB2FB791344DBB2DBB263F0D7
:101580007F03DBB2DBB21846FFF7A0FF0837BD468A
:1015900080BD00BF80B500AF0120FFF797FF80BD81
:1015A00080B582B000AF0023FB7100233B600820B0
:1015B0000121FFF7F5F92A4BBF221A60284B0222BE
:1015C0005A71274B01221A712648254900F04EF81E
:1015D0002448152100F0F2F800233B6002E03B684C
:1015E00001333B603B68204A9342F8D90023FB71EA
:1015F00012E00320FFF78AFE00233B6002E03B6815
:1016000001333B603B6847F22F529342F7D9FB7995
:10161000DBB20133DBB2FB71FB79DBB2022BE8D921
:101620000220FFF773FE00233B6002E03B680133BA
:101630003B603B6841F26F729342F7D92820FFF775
:1016400045FF0820FFF742FF0120FFF73FFF06207C
:10165000FFF73CFF0C20FFF739FF0837BD4680BD80
:1016600048000020000C0240DF93040080B487B0E3
:1016700000AF7860396000237B6100233B61002369
:10168000FB6000237B6176E07B69012202FA03F3B1
:101690003B613B681A683B691340FB60FA683B6931
:1016A0009A4265D17B681A687B695B0019460323FF
:1016B0008B40DB431A407B681A607B681A683B6882
:1016C0001B7919467B695B0001FA03F31A437B68B7
:1016D0001A603B681B79012B03D03B681B79022BF6
:1016E0002ED17B689A687B695B00194603238B4087
:1016F000DB431A407B689A607B689A683B685B7939
:1017000019467B695B0001FA03F31A437B689A6010
:101710007B685A687B699BB2194601238B40DB4387
:101720001A407B685A607B685B683A689279114618
:101730007A6992B201FA02F292B21A437B685A6055
:101740007B68DA687B699BB25B00032101FA03F3D3
:10175000DB431A407B68DA607B68DA683B68DB79D8
:1017600019467B695B0001FA03F31A437B68DA6070
:101770007B6901337B617B690F2B85D91C37BD46A3
:101780005DF8047B704700BF80B485B000AF78601F
:101790000B467B800023FB737B681A697B881340B0
:1017A000002B02D00123FB7301E00023FB73FB7BC2
:1017B00018461437BD465DF8047B704780B483B08B
:1017C00000AF78600B467B807B687A885A830C3741
:1017D000BD465DF8047B704780B483B000AF78608D
:1017E0000B467B8013467B707B78002B03D07B6895
:1017F0007A881A8302E07B687A885A830C37BD4660
:101800005DF8047B704700BF80B483B000AF7860A0
:101810000B467B807B685A697B885A407B685A619B
:101820000C37BD465DF8047B704700BF80B500AF44
:10183000114A114B1B6843F0010313600E4B002249
:101840009A600D4A0C4B1B6823F0847323F4803399
:101850001360094B094A5A60074A074B1B6823F477
:1018600080231360044B0022DA6000F00BF8044B75
:101870004FF000629A6080BD0038024010300024B2
:1018800000ED00E080B483B000AF00237B60002354
:101890003B60354A344B1B6843F480331360324B52
:1018A0001B6803F400333B607B6801337B603B685B
:1018B000002B03D17B68B3F5A06FF0D12A4B1B68D6
:1018C00003F40033002B02D001233B6001E000232E
:1018D0003B603B68012B42D1234A234B1B6C43F0F6
:1018E00080531364214A214B1B6843F480431360E7
:1018F0001D4A1D4B9B6893601B4A1B4B9B6843F41E
:1019000000439360184A184B9B6843F4A0539360BC
:10191000154B174A5A60144A134B1B6843F08073E7
:10192000136000BF104B1B6803F00073002BF9D04D
:10193000104B40F205621A600B4A0B4B9B6823F078
:1019400003039360084A084B9B6843F002039360CB
:1019500000BF054B9B6803F00C03082BF9D10C3733
:10196000BD465DF8047B70470038024000700040BF
:1019700019544007003C024080B485B000AF786045
:101980000023FB60344BFB607B689B79002B4FD0BE
:101990003149314B1A687B681B68DB4313400B608D
:1019A0002D492D4B5A687B681B68DB4313404B6005
:1019B0007B681B791A46FB681344FB60FB68FA6876
:1019C00011687A6812680A431A602349224B9A68A0
:1019D0007B681B68DB4313408B601F491E4BDA6832
:1019E0007B681B68DB431340CB607B685B79102B03
:1019F0000ED11949184B9A687B681B6813438B609A
:101A00001549154BDA687B681B681343CB601DE0F2
:101A1000114BFB607B685B791A46FB681344FB60E3
:101A2000FB68FA6811687A6812680A431A600DE068
:101A30007B681B791A46FB681344FB60FB68FA68F5
:101A400011687A681268D2430A401A601437BD469A
:101A50005DF8047B704700BF003C014080B485B056
:101A600000AF78600023FB730023BB600C4B1A6847
:101A70007B681340BB600A4B5A697B681340002B9C
:101A800005D0BB68002B02D00123FB7301E00023CB
:101A9000FB73FB7B18461437BD465DF8047B70472B
:101AA000003C014080B483B000AF7860034A7B689B
:101AB00053610C37BD465DF8047B7047003C014024
:101AC00080B483B000AF7860054A7B6843F0BF63A1
:101AD00043F40033D3600C37BD465DF8047B704798
:101AE00000ED00E080B485B000AF78600023FB73A8
:101AF0000023BB730F237B737B68DB78002B38D00C
:101B0000264BDB68DB4303F4E0631B0AFB73FB7BC0
:101B1000C3F10403BB737A7BFB7B42FA03F37B7351
:101B20007B685B781A46BB7B02FA03F3FB737B6826
:101B30009A787B7B1340DAB2FB7B1343FB73FB7B0E
:101B40001B01FB73164A7B681B781344FA7B83F8EE
:101B50000023134A7B681B785B09DBB218467B685D
:101B60001B7803F01F03012101FA03F342F8203030
:101B70000FE00B497B681B785B09DBB218467B687A
:101B80001B7803F01F0301229A4000F1200341F863
:101B900023201437BD465DF8047B704700ED00E05C
:101BA00000E100E080B485B000AF786039600023C8
:101BB000FB817B681B88FB817B68284A934213D09A
:101BC0007B68274A93420FD07B68B3F1804F0BD0DC
:101BD0007B68244A934207D07B68234A934203D010
:101BE0007B68224A934208D1FB8923F07003FB8172
:101BF0003B685A88FB891343FB817B681C4A9342EC
:101C00000CD07B681B4A934208D0FB8923F44073B5
:101C1000FB813B681A89FB891343FB817B68FA8946
:101C20001A803B685A687B68DA623B681A887B686E
:101C30001A857B68094A934203D07B68084A93421D
:101C400004D13B689B7A9AB27B681A867B68012232
:101C50009A821437BD465DF8047B7047000001404E
:101C6000000401400004004000080040000C004057
:101C7000001000400014004080B483B000AF7860D2
:101C80000B46FB70FB78002B08D07B681B889BB24F
:101C900043F001039AB27B681A8007E07B681B88D7
:101CA0009BB223F001039AB27B681A800C37BD46C1
:101CB0005DF8047B704700BF80B483B000AF7860EC
:101CC0000B467B8013467B707B78002B08D07B68AB
:101CD0009B899AB27B8813439AB27B689A8109E008
:101CE0007B689B899AB27B88DB439BB213409AB294
:101CF0007B689A810C37BD465DF8047B704700BF56
:101D000080B485B000AF78600B467B800023FB7306
:101D10000023BB8100237B817B681B8A9AB27B886E
:101D20001340BB817B689B899AB27B8813407B817F
:101D3000BB89002B05D07B89002B02D00123FB73CC
:101D400001E00023FB73FB7B18461437BD465DF8AA
:101D5000047B704780B483B000AF78600B467B8013
:101D60007B88DB439AB27B681A820C37BD465DF8EC
:101D7000047B704781F0004102E000BF83F0004324
:101D800030B54FEA41044FEA430594EA050F08BF16
:101D900090EA020F1FBF54EA000C55EA020C7FEADA
:101DA000645C7FEA655C00F0E2804FEA5454D4EB57
:101DB0005555B8BF6D420CDD2C4480EA020281EA21
:101DC000030382EA000083EA010180EA020281EA59
:101DD0000303362D88BF30BD11F0004F4FEA0131AB
:101DE0004FF4801C4CEA113102D0404261EB4101BA
:101DF00013F0004F4FEA03334CEA133302D0524240
:101E000063EB430394EA050F00F0A780A4F10104FB
:101E1000D5F1200E0DDB02FA0EFC22FA05F2801835
:101E200041F1000103FA0EF2801843FA05F359411B
:101E30000EE0A5F120050EF1200E012A03FA0EFC9A
:101E400028BF4CF0020C43FA05F3C01851EBE371C4
:101E500001F0004507D54FF0000EDCF1000C7EEBE1
:101E600000006EEB0101B1F5801F1BD3B1F5001F1F
:101E70000CD349085FEA30004FEA3C0C04F101043E
:101E80004FEA445212F5800F80F09A80BCF1004F67
:101E900008BF5FEA500C50F1000041EB045141EAE9
:101EA000050130BD5FEA4C0C404141EB010111F4EA
:101EB000801FA4F10104E9D191F0000F04BF014695
:101EC0000020B1FA81F308BF2033A3F10B03B3F173
:101ED00020020CDA0C3208DD02F1140CC2F10C0203
:101EE00001FA0CF021FA02F10CE002F11402D8BF61
:101EF000C2F1200C01FA02F120FA0CFCDCBF41EA2D
:101F00000C019040E41AA2BF01EB0451294330BDFB
:101F10006FEA04041F3C1CDA0C340EDC04F11404D8
:101F2000C4F1200220FA04F001FA02F340EA0300AF
:101F300021FA04F345EA030130BDC4F10C04C4F1F5
:101F4000200220FA02F001FA04F340EA03002946D5
:101F500030BD21FA04F0294630BD94F0000F83F41F
:101F6000801306BF81F480110134013D4EE77FEA02
:101F7000645C18BF7FEA655C29D094EA050F08BF4E
:101F800090EA020F05D054EA000C04BF194610462F
:101F900030BD91EA030F1EBF0021002030BD5FEA73
:101FA000545C05D14000494128BF41F0004130BD9B
:101FB00014F580043CBF01F5801130BD01F00045EF
:101FC00045F0FE4141F470014FF0000030BD7FEA62
:101FD000645C1ABF194610467FEA655C1CBF0B465D
:101FE000024650EA013406BF52EA033591EA030F74
:101FF00041F4002130BD00BF90F0000F04BF00216C
:10200000704730B54FF4806404F132044FF000059E
:102010004FF0000150E700BF90F0000F04BF002117
:10202000704730B54FF4806404F1320410F000457D
:1020300048BF40424FF000013EE700BF42004FEA78
:10204000E2014FEA31014FEA02701FBF12F07F43F5
:1020500093F07F4F81F06051704792F0000F14BFF2
:1020600093F07F4F704730B54FF4607401F0004536
:1020700021F0004120E700BF50EA010208BF70478D
:1020800030B54FF000050AE050EA010208BF704782
:1020900030B511F0004502D5404261EB41014FF4EB
:1020A000806404F132045FEA915C3FF4DCAE4FF0EF
:1020B00003025FEADC0C18BF03325FEADC0C18BFD6
:1020C000033202EBDC02C2F1200300FA03FC20FA27
:1020D00002F001FA03FE40EA0E0021FA02F1144474
:1020E000C1E600BF70B54FF0FF0C4CF4E06C1CEA89
:1020F00011541DBF1CEA135594EA0C0F95EA0C0FFE
:1021000000F0DEF82C4481EA030621EA4C5123EA70
:102110004C5350EA013518BF52EA033541F480119F
:1021200043F4801338D0A0FB02CE4FF00005E1FB52
:1021300002E506F00042E0FB03E54FF00006E1FB9C
:1021400003569CF0000F18BF4EF0010EA4F1FF04DF
:10215000B6F5007F64F5407404D25FEA4E0E6D411F
:1021600046EB060642EAC62141EA55514FEAC52030
:1021700040EA5E504FEACE2EB4F1FD0C88BFBCF5AC
:10218000E06F1ED8BEF1004F08BF5FEA500E50F15D
:10219000000041EB045170BD06F0004646EA010123
:1021A00040EA020081EA0301B4EB5C04C2BFD4EB55
:1021B0000C0541EA045170BD41F480114FF0000E4E
:1021C000013C00F3AB8014F1360FDEBF002001F0BC
:1021D000004170BDC4F10004203C35DA0C341BDC36
:1021E00004F11404C4F1200500FA05F320FA04F008
:1021F00001FA05F240EA020001F0004221F000413C
:1022000010EBD37021FA04F642EB06015EEA430EAE
:1022100008BF20EAD37070BDC4F10C04C4F12005DE
:1022200000FA04F320FA05F001FA04F240EA020091
:1022300001F0004110EBD37041F100015EEA430E62
:1022400008BF20EAD37070BDC4F1200500FA05F282
:102250004EEA020E20FA04F301FA05F243EA020301
:1022600021FA04F001F0004121FA04F220EA020010
:1022700000EBD3705EEA430E08BF20EAD37070BD56
:1022800094F0000F0FD101F00046400041EB010136
:1022900011F4801F08BF013CF7D041EA060195F018
:1022A000000F18BF704703F00046520043EB0303D2
:1022B00013F4801F08BF013DF7D043EA06037047BF
:1022C00094EA0C0F0CEA135518BF95EA0C0F0CD0CA
:1022D00050EA410618BF52EA4306D1D181EA030110
:1022E00001F000414FF0000070BD50EA410606BF0A
:1022F0001046194652EA430619D094EA0C0F02D14F
:1023000050EA013613D195EA0C0F05D152EA033693
:102310001CBF104619460AD181EA030101F00041B1
:1023200041F0FE4141F470014FF0000070BD41F0FA
:10233000FE4141F4780170BD70B54FF0FF0C4CF4D4
:10234000E06C1CEA11541DBF1CEA135594EA0C0FF3
:1023500095EA0C0F00F0A7F8A4EB050481EA030E40
:1023600052EA03354FEA013100F088804FEA033327
:102370004FF0805545EA131343EA12634FEA0222F5
:1023800045EA111545EA10654FEA00260EF00041B6
:102390009D4208BF964244F1FD0404F5407402D208
:1023A0005B084FEA3202B61A65EB03055B084FEA99
:1023B00032024FF480104FF4002CB6EB020E75EB96
:1023C000030E22BFB61A754640EA0C005B084FEABE
:1023D0003202B6EB020E75EB030E22BFB61A75463B
:1023E00040EA5C005B084FEA3202B6EB020E75EB86
:1023F000030E22BFB61A754640EA9C005B084FEAFE
:102400003202B6EB020E75EB030E22BFB61A75460A
:1024100040EADC0055EA060E18D04FEA051545EAF9
:1024200016754FEA06164FEAC30343EA52734FEAA2
:10243000C2025FEA1C1CC0D111F4801F0BD141EA1B
:1024400000014FF000004FF0004CB6E711F4801F80
:1024500004BF01430020B4F1FD0C88BFBCF5E06F60
:102460003FF6AFAEB5EB030C04BFB6EB020C5FEA70
:10247000500C50F1000041EB045170BD0EF0004EC5
:102480004EEA113114EB5C04C2BFD4EB0C0541EAF7
:10249000045170BD41F480114FF0000E013C90E6F4
:1024A00045EA060E8DE60CEA135594EA0C0F08BFB8
:1024B00095EA0C0F3FF43BAF94EA0C0F0AD150EAB7
:1024C00001347FF434AF95EA0C0F7FF425AF10464A
:1024D00019462CE795EA0C0F06D152EA03353FF472
:1024E000FDAE1046194622E750EA410618BF52EAEF
:1024F00043067FF4C5AE50EA41047FF40DAF52EAC3
:1025000043057FF4EBAE12E74FEA410212F50012E9
:1025100015D211D56FF47873B3EB625212D94FEA2A
:10252000C12343F0004343EA505311F0004F23FA14
:1025300002F018BF404270474FF00000704750EA69
:10254000013005D111F0004008BF6FF00040704726
:102550004FF00000704700BF20F0030110F00300AF
:10256000C0F1000051F8043B00F1040C4FEACC0C20
:102570006FF000021CBF22FA0CF213434FF0010C63
:102580004CEA0C2C4CEA0C4CA3EB0C0222EA0302A2
:1025900012EACC1204BF51F8043B0430F4D0C2F16B
:1025A000000102EA0102B2FA82F2C2F11F0200EB5C
:1025B000D20070475800000041540D0A000000008E
:1025C00041542B524F4C453D3100000041542B43A8
:1025D0004D4F44453D30000041542B524553455426
:1025E000000000004F464620504F574552202533EB
:1025F0006425250020616E676C65202533642A0000
:102600004F464620504F574552202D2533642525EF
:10261000000000004F4E20504F5745522025336494
:1026200025250000253373636D20616E676C65207E
:102630002533642A000000004F4E20504F5745526A
:10264000202D253364252500256425642564256413
:03265000256400FE
:10265300640000006400000001000000B0040000FA
:0826630001000000010000006D
:0400000508000000EF
:00000001FF
