:020000040800F2
:100000009808002069050008C1050008C10500081E
:10001000C1050008C1050008C10500080000000076
:10002000000000000000000000000000C105000802
:10003000C105000800000000C1050008DD06000839
:10004000C1050008C1050008C1050008C105000878
:10005000C1050008C1050008BD090008C105000868
:10006000C1050008C10500080D0A0008C105000807
:10007000C1050008C1050008C1050008C105000848
:10008000C1050008C1050008C1050008C105000838
:10009000C1050008C1050008C1050008C105000828
:1000A000C1050008C1050008C1050008C105000818
:1000B000C105000879070008C1050008C10500084E
:1000C000C1050008C1050008C1050008C1050008F8
:1000D000C1050008C1050008C1050008E9060008BF
:1000E000C1050008C1050008C1050008C1050008D8
:1000F000C1050008C1050008C1050008C1050008C8
:10010000C1050008C1050008C1050008C1050008B7
:10011000C1050008C1050008C1050008C1050008A7
:10012000C1050008C1050008C1050008C105000897
:10013000C1050008C1050008C1050008C105000887
:10014000C1050008C1050008C1050008C105000877
:10015000C1050008C1050008C1050008C105000867
:10016000C1050008C1050008C1050008C105000857
:10017000C1050008C1050008C1050008C105000847
:10018000C1050008C105000890B484B000AF034663
:100190000A46FB711346BB710023FB60BB7903F079
:1001A00003039B000F2202FA03F3FB601649BB799D
:1001B0009B08DBB21846144ABB799B08DBB20233BA
:1001C00052F82320FB68DB431A40831C41F82320AC
:1001D0000D48BB799B08DBB21C460B4ABB799B08D8
:1001E000DBB2023352F82320F979BB7903F0030321
:1001F0009B0001FA03F31A43A31C40F82320103795
:10020000BD4690BC704700BF0038014080B58AB041
:1002100000AF7860396000237B6200233B620023DB
:10022000FB610023BB617B681B8A9BB27B627B6A9C
:1002300023F440537B623B68DB881A467B6A134396
:100240007B627B6A9AB27B681A827B689B899BB2CD
:100250007B627B6A23F4B05323F00C037B623B6820
:100260009A883B681B8913439AB23B685B891343A6
:100270009BB21A467B6A13437B627B6A9AB27B68A5
:100280009A817B689B8A9BB27B627B6A23F4407372
:100290007B623B689B891A467B6A13437B627B6A5D
:1002A0009AB27B689A8207F10803184600F004FCB2
:1002B0007B68314A934203D07B68304A934202D133
:1002C0007B693B6201E03B693B627B689B899BB237
:1002D0009BB21BB2002B0CDA3A6A13469B00134404
:1002E0009A001A443B681B685B00B2FBF3F3FB61A6
:1002F0000BE03A6A13469B0013449A001A443B6889
:100300001B689B00B2FBF3F3FB61FB691C4AA2FB79
:1003100003235B091B017B627B6A1B09642202FBCE
:1003200003F3FA69D31ABB617B689B899BB29BB2CA
:100330001BB2002B0CDABB69DB003233104AA2FB84
:1003400003235B0903F007037A6A13437B620BE024
:10035000BB691B0132330A4AA2FB03235B0903F08A
:100360000F037A6A13437B627B6A9AB27B681A81B5
:100370002837BD4680BD00BF001001400014014079
:100380001F85EB5180B483B000AF78600B46FB70E3
:10039000FB78002B08D07B689B899BB243F4005309
:1003A0009AB27B689A8107E07B689B899BB223F4B1
:1003B00000539AB27B689A810C37BD465DF8047B86
:1003C000704700BF80B483B000AF78600B467B807D
:1003D0007B88C3F308039AB27B689A800C37BD46CA
:1003E0005DF8047B704700BF80B487B000AF7860D1
:1003F0000B467B8013467B7000233B610023FB6030
:100400000023BB6000237B617B687B617B88DBB260
:100410005B09DBB23B617B8803F01F03FB60FB6879
:10042000012202FA03F3BB603B69012B03D17B6914
:100430000C337B6109E03B69022B03D17B691033EC
:100440007B6102E07B6914337B617B78002B06D0F3
:100450007B697A691168BA680A431A6006E07B69A9
:100460007A691168BA68D2430A401A601C37BD46DF
:100470005DF8047B704700BF80B485B000AF786042
:100480000B467B800023FB737B681B889AB27B88BA
:1004900013409BB2002B02D00123FB7301E0002329
:1004A000FB73FB7B18461437BD465DF8047B704731
:1004B00080B487B000AF78600B467B800023FB6080
:1004C00000237B610023BB600023FB747B88DBB2CD
:1004D0005B09DBB2BB607B8803F01F037B617B6938
:1004E000012202FA03F37B61BB68012B07D17B6811
:1004F0009B899BB21A467B6913407B6111E0BB6804
:10050000022B07D17B681B8A9BB21A467B6913407A
:100510007B6106E07B689B8A9BB21A467B6913402D
:100520007B617B881B0A9BB2FB60FB68012202FA9D
:1005300003F3FB607B681B889BB21A46FB68134081
:10054000FB607B69002B05D0FB68002B02D00123E8
:10055000FB7401E00023FB74FB7C18461C37BD468E
:100560005DF8047B704700BF80B582B000AF0F4BD1
:100570007B600F4B3B6007E03B681A1D3A607A686E
:10058000111D796012681A603B680A4A9342F3D3DE
:1005900009480A494FF000028842B8BF40F8042BCE
:1005A000FADB00F049FA0837BD4680BD5F2D000830
:1005B00000000020300000203000002098000020C3
:1005C00080B400AFFEE700BF80B483B000AF034645
:1005D000FB71084997F907305B09FA7902F01F02AD
:1005E000012000FA02F241F823200C37BD465DF8E5
:1005F000047B704700E100E080B483B000AF0346A5
:100600003960FB7197F90730002B0BDA0D49FB7944
:1006100003F00F03043B3A68D2B21201D2B20B448A
:100620001A7609E0084997F907303A68D2B2120100
:10063000D2B20B4483F800230C37BD465DF8047B2F
:10064000704700BF00ED00E000E100E080B582B03F
:1006500000AF78607B68B3F1807F01D3012311E0A4
:100660000A4A7B6823F07F43013B53604FF0FF3021
:100670000F21FFF7C1FF054B00229A60034B0722B1
:100680001A60002318460837BD4680BD10E000E020
:1006900080B483B000AF78607B68064A136000BF07
:1006A000044B1B68002BFBD10C37BD465DF8047B67
:1006B000704700BF4C00002080B400AF064B1B68A1
:1006C000002B04D0044B1B68013B034A1360BD465A
:1006D0005DF8047B704700BF4C00002080B500AF80
:1006E000FFF7EAFF80BD00BF80B500AF0F4840F2C2
:1006F0002551FFF7DDFE0346002B16D00B4B9B88E0
:100700009BB21A460A4B1A600A4B01221A600A4B26
:1007100000221A60094B01221A6000BF03484021E1
:10072000FFF7AAFE0346002BF8D080BD004800402A
:100730006C00002048000020400000204400002001
:1007400080B500AF074800F02DFC03461A46064B63
:100750001A60064800F026FC03461A46044B1A604D
:1007600080BD00BF0020014030000020002101407A
:100770003400002000000000B0B584B004AF74481D
:10078000012101F06DFE0346002B00F0D68000BF72
:100790007048022100F014FC0346002BF8D06E488C
:1007A000022100F00DFC0346002BF1D06B4B1B68BF
:1007B0000A2B02D16A4B00221A60684B1B68092B76
:1007C00004DC664B1B680133644A1360654B1B688D
:1007D000012B02D1634B00221A60FFF7B1FF624B7D
:1007E0001B68A3F2FF73184601F0C6FF02460B46D2
:1007F0001046194654A3D3E9002302F04DF90246EE
:100800000B461046194602F02FFA0246574B1A6063
:10081000564B1B682D2B02DD544B2D221A60534B77
:100820001B6813F12D0F03DA504B6FF02C021A6086
:100830004D4B1B684E4A82FB03125211DB17D31A31
:100840002D334C4A13604C4B1B684C4A82FB0312FD
:100850001211DB17D31A4A4A1360494B1B68782BD5
:1008600002DD474B78221A60434B1B68454A82FBE6
:1008700003121211DB17D31A434A1360424B1B6851
:10088000642B02DD404B64221A60404B1B68002B36
:1008900004D13D4B1B685B423B4A1360304B1B68E5
:1008A000002B1DD100F0ACFF374B1B68384839498D
:1008B0001A4600F04BFE2D4B1B68374837491A4645
:1008C00000F044FE0020324900F05AFF0120324976
:1008D00000F056FF32484FF4804101F0CBF817E0AA
:1008E00000F08EFF284B1B6829482E491A4600F05D
:1008F0002DFE1E4B1B6828482B492C4A00F026FE73
:100900000020234900F03CFF0120234900F038FF7C
:10091000184B1D681A4B1C681C4B1A68244B1B682B
:100920007821009101920293224823492A462346C6
:1009300000F00CFE1F4801F029FA0548012101F0E2
:10094000B9FDBD46B0BD00BF0000000000C046407C
:100950000004004000200140002101404000002030
:1009600044000020480000203400002070000020D7
:100970003F06E7638C00002030000020797878780B
:1009800058000020676666665400002004000020BE
:100990005C000020142D000874000020242D0008A5
:1009A000000C0240302D0008402D000850000020AF
:1009B0000800002084000020542D000880B500AFFE
:1009C000C820FFF765FE012001F0F8FB0346002B6D
:1009D00016D00C4B1B68012B03D10A4B00221A6066
:1009E00006E0084B1B68002B02D1064B01221A605F
:1009F00005484FF4005101F03DF8012001F002FCE0
:100A000080BD00BF04000020000C024080B500AF94
:100A1000C820FFF73DFE102001F0D0FB0346002B5D
:100A200007D004484FF4005101F024F8102001F0E1
:100A3000E9FB80BD000C024080B500AF01F074F806
:100A400000F0E4FE01F0F8F901F044FA01F08CFA4C
:100A500001F0B0F901F0CEF901F0A2FA01F0D6FAF6
:100A600001F0BEFA01F026F901F046F901F002F9B1
:100A700001F05AF90D480121FFF784FC2720FFF708
:100A8000A3FD01F0DBFA01F00FFB01F0F7FA084BD0
:100A90001B68084AA2FB03239B091846FFF7D6FDF3
:100AA0000346002B00D0FEE7FEE700BF00480040F1
:100AB0001C000020D34D621080B489B000AF786074
:100AC0000023BB6100237B610023FB6102233B61A8
:100AD0000023FB600223BB60484B9B6803F00C03C0
:100AE000BB61BB69042B07D0082B09D0002B3FD179
:100AF0007B68434A1A603FE07B68424A1A603BE0E9
:100B00003E4B5B6803F480039B0DFB603B4B5B68D3
:100B100003F03F03BB60FB68002B0DD0394ABB6874
:100B2000B2FBF3F2354B596847F6C0730B409B0993
:100B300003FB02F3FB610CE0314ABB68B2FBF3F24A
:100B40002E4B596847F6C0730B409B0903FB02F319
:100B5000FB612A4B5B6803F440331B0C01335B00E1
:100B60003B61FA693B69B2FBF3F27B681A6003E010
:100B70007B68234A1A6000BF204B9B6803F0F00398
:100B8000BB61BB691B09BB611F4ABB6913441B786E
:100B9000DBB27B617B681A687B69DA407B685A60EC
:100BA000164B9B6803F4E053BB61BB699B0ABB61B6
:100BB000154ABB6913441B78DBB27B617B685A68BA
:100BC0007B69DA407B689A600C4B9B6803F4604356
:100BD000BB61BB695B0BBB610B4ABB6913441B78F0
:100BE000DBB27B617B685A687B69DA407B68DA60DC
:100BF0002437BD465DF8047B704700BF00380240D3
:100C00000024F40000127A000C00002080B483B0AD
:100C100000AF78600B46FB70FB78002B06D00949CB
:100C2000084B1A6B7B6813430B6306E00549054BC1
:100C30001A6B7B68DB4313400B630C37BD465DF8D2
:100C4000047B70470038024080B483B000AF786006
:100C50000B46FB70FB78002B06D00949084B1A6C39
:100C60007B6813430B6406E00549054B1A6C7B68EF
:100C7000DB4313400B640C37BD465DF8047B7047C3
:100C80000038024080B483B000AF78600B46FB7040
:100C9000FB78002B06D00949084B5A6C7B6813433C
:100CA0004B6406E00549054B5A6C7B68DB431340F7
:100CB0004B640C37BD465DF8047B7047003802403A
:100CC00080B485B000AF786039600023FB600023FA
:100CD000FB727B685B68FB60FB6823F0407323F466
:100CE0008073FB603B681B791A023B681B681343E7
:100CF000FA681343FB607B68FA685A607B689B68FC
:100D0000FB60FA68174B1340FB603B681A693B684D
:100D1000DB681A433B689B681A433B685B795B005E
:100D20001343FA681343FB607B68FA689A607B6838
:100D3000DB6AFB60FB6823F47003FB603B681B7D90
:100D4000013BDAB2FB7A1343FB72FB7A1B05FA68AC
:100D50001343FB607B68FA68DA621437BD465DF8BE
:100D6000047B7047FDF7FFC080B485B000AF7860AA
:100D70000023FB600E4B5B68FB60FA680D4B134071
:100D8000FB607B681A687B685B681A437B689B68BA
:100D90001A437B68DB681343FA681343FB60044A19
:100DA000FB6853601437BD465DF8047B704700BF95
:100DB00000230140E030FCFF80B483B000AF7860D6
:100DC0000B46FB70FB78002B06D07B689B6843F0DA
:100DD00001027B689A6005E07B689B6823F0010252
:100DE0007B689A600C37BD465DF8047B704700BF96
:100DF00080B485B000AF7860084611461A460346B5
:100E0000FB700B46BB7013467B700023FB60002316
:100E1000BB60FB78092B23D97B68DB68FB60FB7820
:100E2000A3F10A0213465B001344072202FA03F3FC
:100E3000BB60BB68DB43FA681340FB607978FB78E2
:100E4000A3F10A0213465B00134401FA03F3BB60EB
:100E5000FA68BB681343FB607B68FA68DA601EE0DF
:100E60007B681B69FB60FA7813465B00134407221A
:100E700002FA03F3BB60BB68DB43FA681340FB6014
:100E80007978FA7813465B00134401FA03F3BB60E8
:100E9000FA68BB681343FB607B68FA681A61BB7829
:100EA000062B21D87B685B6BFB60BB785A1E134610
:100EB0009B0013441F2202FA03F3BB60BB68DB43B1
:100EC000FA681340FB60F978BB785A1E13469B0002
:100ED000134401FA03F3BB60FA68BB681343FB6079
:100EE0007B68FA685A6347E0BB780C2B21D87B6893
:100EF0001B6BFB60BB78DA1F13469B0013441F2259
:100F000002FA03F3BB60BB68DB43FA681340FB6083
:100F1000F978BB78DA1F13469B00134401FA03F3F8
:100F2000BB60FA68BB681343FB607B68FA681A63AE
:100F300022E07B68DB6AFB60BB78A3F10D021346FD
:100F40009B0013441F2202FA03F3BB60BB68DB4320
:100F5000FA681340FB60F978BB78A3F10D021346E1
:100F60009B00134401FA03F3BB60FA68BB681343A8
:100F7000FB607B68FA68DA621437BD465DF8047B73
:100F8000704700BF80B483B000AF78607B689B6817
:100F900043F080427B689A600C37BD465DF8047B65
:100FA000704700BF80B483B000AF78607B68DB6CB3
:100FB0009BB218460C37BD465DF8047B704700BFF6
:100FC00080B485B000AF78600B46FB700023FB73E4
:100FD0007B681A68FB781340002B02D00123FB7357
:100FE00001E00023FB73FB7B18461437BD465DF818
:100FF000047B704780B483B000AF78600B46FB7011
:101000007B68FA781A70012318460C37BD465DF8E4
:10101000047B704780B485B000AF786039600023EE
:10102000FB600AE07B685A1C7A603A68511C3960A0
:1010300012781A70FB680133FB603B681B78002B49
:10104000F0D1FB6818461437BD465DF8047B704745
:1010500080B586B000AFF8607A603B600B46FB72EB
:1010600000237B617B68013B7B603B68092B10D9C7
:101070003B681E4AA2FB0323DB08FA7AF868114694
:101080007A68FFF7E5FF78617B69FA681344FB60D3
:1010900011E00DE0FB7AF8681946FFF7ABFFFB683B
:1010A0000133FB607B6901337B617B68013B7B60C3
:1010B0007B68002BEEDC39680C4BA3FB0123DA08BC
:1010C00013469B0013445B00CA1AD3B23033DBB221
:1010D000F8681946FFF78EFF02467B6913447B616F
:1010E0007B6918461837BD4680BD00BFCDCCCCCC3F
:1010F00090B587B000AFF8607A603B600B46FB723A
:1011000000237B613B68002B03DA3B685B423B6159
:1011100001E03B683B617B68013B7B603B69092BDD
:1011200025D93B68002B0FDA3B69314AA2FB032328
:10113000DB085B421C46FB7AF86819467A6823464E
:10114000FFF7D6FF78610DE03B69294AA2FB032334
:10115000DB081C46FB7AF86819467A682346FFF7D5
:10116000C7FF78617B69FA681344FB6025E03B6840
:10117000002B02DA7B68013B7B600DE0FB7AF868AC
:101180001946FFF737FFFB680133FB607B690133CA
:101190007B617B68013B7B607B68002BEEDC3B68FE
:1011A000002B0ADAF8682D21FFF724FF02467B693D
:1011B00013447B61FB680133FB6039690C4BA3FB73
:1011C0000123DA0813469B0013445B00CA1AD3B20A
:1011D0003033DBB2F8681946FFF70CFF02467B6933
:1011E00013447B617B6918461C37BD4690BD00BF28
:1011F000CDCCCCCC90B589B002AFF8607A601A46FD
:101200000B46FB721346BB7200237B617B68013B7C
:101210007B60BB6A1B09002B13D0BB6A1B09FA7ADF
:10122000BC7A0093F86811467A682346FFF7E2FF1C
:1012300002467B6913447B617B69FA681344FB6057
:1012400011E00DE0FB7AF8681946FFF7D3FEFB6862
:101250000133FB607B6901337B617B68013B7B6011
:101260007B68002BEEDCBB6A03F00F03092B0BD865
:10127000BB6ADBB203F00F03DBB23033DBB2F868DA
:101280001946FFF7B7FE19E0BB7A002B0BD0BB6AFB
:10129000DBB203F00F03DBB23733DBB2F868194679
:1012A000FFF7A8FE0AE0BB6ADBB203F00F03DBB274
:1012B0005733DBB2F8681946FFF79CFE7B690133B0
:1012C0007B617B6918461C37BD4690BD90B58BB0DD
:1012D00002AFF860B9607A603B600023BB61002315
:1012E0007B61FB68002B02D0FB6800221A70FCE0D7
:1012F0007B681B78252B0BD0FB685A1CFA607A6838
:10130000511C796012781A707B6901337B61ECE0C3
:101310007B6801331B78252B0BD1FB685A1CFA60C4
:1013200025221A707B6802337B607B6901337B6105
:10133000DBE02023FB770023BB777B6801337B60F6
:101340007B681B78302B04D13023FB777B6801331B
:101350007B600EE0BB7F1A46920013445B00DAB25A
:101360007B681B781344DBB2303BBB777B6801336F
:101370007B607B681B782F2B03D97B681B78392B0C
:10138000E8D9BA7F7B6913441A46BB689A4205D9EB
:10139000BB68DAB27B69DBB2D31ABB777B681B7898
:1013A000583B202B00F2938001A252F823F000BF9B
:1013B00087140008CF140008CF140008CF140008C9
:1013C000CF140008CF140008CF140008CF14000871
:1013D000CF140008CF140008CF140008B914000877
:1013E00035140008CF140008CF140008CF140008EB
:1013F000CF14000835140008CF140008CF140008DB
:10140000CF140008CF140008CF140008CF14000830
:10141000CF140008CF140008CF140008A51400084A
:10142000CF1400084F140008CF140008CF14000890
:1014300069140008BC7F3B681A1D3A601B68FA7F7C
:10144000F86811462246FFF753FEB86142E0BC7FC0
:101450003B681A1D3A601B68FA7FF86811462246FD
:10146000FFF7F6FDB86135E0BC7F3B681A1D3A60B6
:101470001B68FA7F0093F868114622460023FFF7A5
:10148000B9FEB86126E0BC7F3B681A1D3A601B6854
:10149000FA7F0093F868114622460123FFF7AAFE5F
:1014A000B86117E03B681A1D3A601B68F868194676
:1014B000FFF7B0FDB8610DE03B681A1D3A601B688C
:1014C000DBB2F8681946FFF795FDB86102E04FF00E
:1014D000FF3325E07B6801337B60BB69FA68134406
:1014E000FB607A69BB6913447B617B681B78002BC6
:1014F00004D07A69BB689A42FFF4FAAE7A69BB6895
:101500009A4203D2FB6800221A7008E0FB68013B94
:10151000FB60FB6800221A707B69013B7B617B6981
:1015200018462437BD4690BD80B584B000AFF86042
:10153000B9607A60F8686421BA687B68FFF7C6FE14
:10154000034618461037BD4680BD00BF0EB480B5B7
:1015500085B000AF786007F12003BB607868F96957
:10156000BA68FFF7E1FFF860FB6818461437BD461C
:10157000BDE8804003B0704780B582B000AF03463D
:10158000FB7118481021012200F05CFAFB7903F08E
:101590000103DBB2134802211A4600F053FAFB792B
:1015A00003F00203DBB20F4808211A4600F04AFAA2
:1015B000FB7903F00403DBB20A4820211A4600F04D
:1015C00041FAFB7903F00803DBB2064880211A4692
:1015D00000F038FA03481021002200F033FA0837EF
:1015E000BD4680BD000C024080B582B000AF002334
:1015F000FB711D481021012200F024FA1A48022133
:1016000000F0F8F90346DAB2FB791343DBB2FB7161
:101610001548082100F0EEF903465B00DAB2FB79C9
:101620001343DBB2FB711048202100F0E3F90346BD
:101630009B00DAB2FB791343DBB2FB710A488021CD
:1016400000F0D8F90346DB00DAB2FB791343DBB2D2
:10165000FB7105481021002200F0F4F9FB791846CF
:101660000837BD4680BD00BF000C024080B582B087
:1016700000AF0023FB71194BAA221A60174B0022FE
:101680001A711748154900F027F91548042101225D
:1016900000F0D8F912480121002200F0D3F9FFF739
:1016A000A3FF03461B01DAB2FB791343DBB2FB71E4
:1016B000FFF79AFF03461A46FB791343FB71074B6A
:1016C000AA221A60054B01221A710548034900F04D
:1016D00003F9FB7918460837BD4680BD900000200D
:1016E000000C024080B582B000AF0346FB71114888
:1016F0000421002200F0A6F90E480121012200F089
:10170000A1F9FB791B09DBB21846FFF735FFFB791E
:1017100003F00F03DBB21846FFF72EFF00BFFFF701
:10172000A5FF0346DBB25BB2002BF8DB0837BD46F2
:1017300080BD00BF000C024080B582B000AF034600
:10174000FB710E480521002200F07CF9FB791B0992
:10175000DBB21846FFF710FFFB7903F00F03DBB293
:101760001846FFF709FF00BFFFF780FF0346DBB213
:101770005BB2002BF8DB0837BD4680BD000C024091
:1017800080B584B000AF03463960FB71386801F062
:1017900093FAF860FB685B08C3F10803BB60BB68A1
:1017A000DAB2FB791046194600F010F806E03B6803
:1017B0005A1C3A601B781846FFF794FF3B681B7869
:1017C000002BF4D11037BD4680BD00BF80B582B07C
:1017D00000AF03460A46FB711346BB71BB799B0100
:1017E000DAB2FB791344DBB2DBB263F07F03DBB226
:1017F000DBB21846FFF7A0FF0837BD4680BD00BF2B
:1018000080B500AF0120FFF797FF80BD80B582B0A3
:1018100000AF0023FB7100233B6008200121FFF78C
:10182000F5F92A4BBF221A60284B02225A71274B26
:1018300001221A712648254900F04EF82448152146
:1018400000F0F2F800233B6002E03B6801333B60AC
:101850003B68204A9342F8D90023FB7112E0032031
:10186000FFF78AFE00233B6002E03B6801333B60E8
:101870003B6847F22F529342F7D9FB79DBB2013331
:10188000DBB2FB71FB79DBB2022BE8D90220FFF758
:1018900073FE00233B6002E03B6801333B603B6822
:1018A00041F26F729342F7D92820FFF745FF0820D5
:1018B000FFF742FF0120FFF73FFF0620FFF73CFF45
:1018C0000C20FFF739FF0837BD4680BD900000208F
:1018D000000C0240DF93040080B487B000AF786052
:1018E000396000237B6100233B610023FB60002300
:1018F0007B6176E07B69012202FA03F33B613B687E
:101900001A683B691340FB60FA683B699A4265D1EB
:101910007B681A687B695B00194603238B40DB43B5
:101920001A407B681A607B681A683B681B79194605
:101930007B695B0001FA03F31A437B681A603B681A
:101940001B79012B03D03B681B79022B2ED17B68BE
:101950009A687B695B00194603238B40DB431A407E
:101960007B689A607B689A683B685B7919467B69FB
:101970005B0001FA03F31A437B689A607B685A683C
:101980007B699BB2194601238B40DB431A407B687D
:101990005A607B685B683A68927911467A6992B2BC
:1019A00001FA02F292B21A437B685A607B68DA68E5
:1019B0007B699BB25B00032101FA03F3DB431A400E
:1019C0007B68DA607B68DA683B68DB7919467B699B
:1019D0005B0001FA03F31A437B68DA607B69013329
:1019E0007B617B690F2B85D91C37BD465DF8047B75
:1019F000704700BF80B485B000AF78600B467B8035
:101A00000023FB737B681A697B881340002B02D08C
:101A10000123FB7301E00023FB73FB7B18461437A3
:101A2000BD465DF8047B704780B483B000AF78603A
:101A30000B467B807B687A885A830C37BD465DF8FD
:101A4000047B704780B483B000AF78600B467B8026
:101A500013467B707B78002B03D07B687A881A83CF
:101A600002E07B687A885A830C37BD465DF8047BB8
:101A7000704700BF80B483B000AF78600B467B80B6
:101A80007B685A697B885A407B685A610C37BD462F
:101A90005DF8047B704700BF80B485B000AF78600C
:101AA0000B467B8013467B700023FB600023BB60EA
:101AB0007B787A8802F0070292009340FB607B8873
:101AC000DB089BB218467B88DB089BB21A467B6812
:101AD000083253F822207B8803F007039B00194645
:101AE0000F238B40DB4302EA03017B6800F108020D
:101AF00043F822107B88DB089BB21A467B680832C9
:101B000053F82220FB681343BB607B88DB089BB241
:101B10001A467B680832B96843F822101437BD466C
:101B20005DF8047B704700BF80B500AF114A114BD0
:101B30001B6843F0010313600E4B00229A600D4AAC
:101B40000C4B1B6823F0847323F480331360094B20
:101B5000094A5A60074A074B1B6823F48023136025
:101B6000044B0022DA6000F00BF8044B4FF00062E7
:101B70009A6080BD003802401030002400ED00E083
:101B800080B483B000AF00237B6000233B60354A04
:101B9000344B1B6843F480331360324B1B6803F4EF
:101BA00000333B607B6801337B603B68002B03D1D3
:101BB0007B68B3F5A06FF0D12A4B1B6803F40033A8
:101BC000002B02D001233B6001E000233B603B6817
:101BD000012B42D1234A234B1B6C43F080531364E7
:101BE000214A214B1B6843F4804313601D4A1D4B5F
:101BF0009B6893601B4A1B4B9B6843F400439360B4
:101C0000184A184B9B6843F4A0539360154B174A2E
:101C10005A60144A134B1B6843F08073136000BF73
:101C2000104B1B6803F00073002BF9D0104B40F2EF
:101C300005621A600B4A0B4B9B6823F00303936009
:101C4000084A084B9B6843F00203936000BF054BB2
:101C50009B6803F00C03082BF9D10C37BD465DF8E7
:101C6000047B704700380240007000400854400771
:101C7000003C024080B584B000AF4FF480200121C9
:101C8000FEF7E2FF4FF416533B600023BB800023B6
:101C9000FB8000233B810023BB810C237B813B46DF
:101CA00003481946FEF7B2FA1037BD4680BD00BFA3
:101CB0000048004080B582B000AF04200121FEF74B
:101CC000A5FF0C480A210722FFF7E6FE0023BB719F
:101CD0000123FB7102233B714FF480633B600223BD
:101CE0007B713B4603481946FFF7F6FD0837BD46B2
:101CF00080BD00BF0008024080B582B000AF094837
:101D00000B210722FFF7C8FE02233B714FF400634B
:101D10003B603B4603481946FFF7DEFD0837BD46EA
:101D200080BD00BF0008024080B582B000AF0A4805
:101D300040F225510122FEF757FB27233B71012377
:101D40007B710023BB710123FB713B1D184600F022
:101D500079FA0837BD4680BD0048004080B582B0A2
:101D600000AF0346FB7100BF07488021FEF784FBEC
:101D70000346002BF8D0FB799BB203481946FEF7C7
:101D800021FB0837BD4680BD0048004080B582B0C9
:101D900000AF786006E07B685A1C7A601B781846B2
:101DA000FFF7DCFF7B681B78002BF4D10837BD46BA
:101DB00080BD00BF80B584B000AF02200121FEF7D6
:101DC00043FF42F2CF03BB604FF49673BB80002306
:101DD000BB810023FB803B1D0548194600F092FAA9
:101DE0000348012100F0F8FA1037BD4680BD00BF5E
:101DF0000004004080B582B000AF4FF4806000F076
:101E00000FFA1D233B7102237B710023BB71012359
:101E1000FB713B1D184600F015FA0648012100F041
:101E200049FB04480121012200F0F6FA0837BD46BB
:101E300080BD00BF0004004080B58CB000AF012021
:101E40000121FEF7E3FE4FF480700121FEF71AFF37
:101E50000223BB62032387F82C30002387F82F303E
:101E600007F1280319481946FFF736FD0023BB6127
:101E70000023FB6100233B6200237B6207F1180310
:101E80001846FEF771FF00233B6000233B710123DE
:101E90007B710023FB600023BB6000233B610123B7
:101EA0003B753B460A481946FEF70AFF08480121E0
:101EB00001220423FEF79CFF05480121FEF77CFF69
:101EC0000348FFF75FF83037BD4680BD0000024091
:101ED0000020014080B58CB000AF4FF400700121AC
:101EE000FEF7D0FE0423BB62032387F82C300023C7
:101EF00087F82F3007F1280319481946FFF7ECFC43
:101F00000023BB610023FB6100233B6200237B6253
:101F100007F118031846FEF727FF00233B60002354
:101F20003B7101237B710023FB600023BB60002316
:101F30003B6101233B753B460A481946FEF7C0FE4C
:101F40000848022101220423FEF752FF054801211F
:101F5000FEF732FF0348FFF715F83037BD4680BD66
:101F6000000002400021014080B582B000AF08208F
:101F70000121FEF74BFE4FF470433B600023BB7121
:101F800003237B710023FB7101233B713B46034814
:101F90001946FFF7A1FC0837BD4680BD000C024082
:101FA00080B582B000AF01200121FEF72FFE012392
:101FB0003B6000233B710023BB7102237B71002334
:101FC000FB713B4605481946FFF786FC3B46034834
:101FD0001946FFF781FC0837BD4680BD000002406E
:101FE00080B582B000AF01233B6000233B71082322
:101FF0007B710123BB713B46184600F06DF8002051
:102000000121FEF7C1F80837BD4680BD80B582B01A
:1020100000AF4FF480400121FEF734FE06233B71F0
:1020200001237B710223BB710123FB713B1D184609
:1020300000F008F90837BD4680BD00BF80B582B00A
:1020400000AF01200121FEF7E1FD10233B600023DA
:102050003B710023BB7102237B710123FB713B4663
:1020600005481946FFF738FC3B4603481946FFF779
:1020700033FC0837BD4680BD0000024080B582B009
:1020800000AF10233B6000233B7108237B710123C9
:10209000BB713B46184600F01FF800200421FEF7F4
:1020A00073F80837BD4680BD80B582B000AF4FF4ED
:1020B00080400121FEF7E6FD0A233B7101237B717D
:1020C0000123BB710123FB713B1D184600F0BAF8D8
:1020D0000837BD4680BD00BF80B485B000AF7860D2
:1020E0000023FB60344BFB607B689B79002B4FD057
:1020F0003149314B1A687B681B68DB4313400B6026
:102100002D492D4B5A687B681B68DB4313404B609D
:102110007B681B791A46FB681344FB60FB68FA680E
:1021200011687A6812680A431A602349224B9A6838
:102130007B681B68DB4313408B601F491E4BDA68CA
:102140007B681B68DB431340CB607B685B79102B9B
:102150000ED11949184B9A687B681B6813438B6032
:102160001549154BDA687B681B681343CB601DE08B
:10217000114BFB607B685B791A46FB681344FB607C
:10218000FB68FA6811687A6812680A431A600DE001
:102190007B681B791A46FB681344FB60FB68FA688E
:1021A00011687A681268D2430A401A601437BD4633
:1021B0005DF8047B704700BF003C014080B485B0EF
:1021C00000AF78600023FB730023BB600C4B1A68E0
:1021D0007B681340BB600A4B5A697B681340002B35
:1021E00005D0BB68002B02D00123FB7301E0002364
:1021F000FB73FB7B18461437BD465DF8047B7047C4
:10220000003C014080B483B000AF7860034A7B6833
:1022100053610C37BD465DF8047B7047003C0140BC
:1022200080B483B000AF7860054A7B6843F0BF6339
:1022300043F40033D3600C37BD465DF8047B704730
:1022400000ED00E080B485B000AF78600023FB7340
:102250000023BB730F237B737B68DB78002B38D0A4
:10226000264BDB68DB4303F4E0631B0AFB73FB7B59
:10227000C3F10403BB737A7BFB7B42FA03F37B73EA
:102280007B685B781A46BB7B02FA03F3FB737B68BF
:102290009A787B7B1340DAB2FB7B1343FB73FB7BA7
:1022A0001B01FB73164A7B681B781344FA7B83F887
:1022B0000023134A7B681B785B09DBB218467B68F6
:1022C0001B7803F01F03012101FA03F342F82030C9
:1022D0000FE00B497B681B785B09DBB218467B6813
:1022E0001B7803F01F0301229A4000F1200341F8FC
:1022F00023201437BD465DF8047B704700ED00E0F5
:1023000000E100E080B485B000AF78603960002360
:10231000FB817B681B88FB817B68284A934213D032
:102320007B68274A93420FD07B68B3F1804F0BD074
:102330007B68244A934207D07B68234A934203D0A8
:102340007B68224A934208D1FB8923F07003FB810A
:102350003B685A88FB891343FB817B681C4A934284
:102360000CD07B681B4A934208D0FB8923F440734E
:10237000FB813B681A89FB891343FB817B68FA89DF
:102380001A803B685A687B68DA623B681A887B6807
:102390001A857B68094A934203D07B68084A9342B6
:1023A00004D13B689B7A9AB27B681A867B680122CB
:1023B0009A821437BD465DF8047B704700000140E7
:1023C000000401400004004000080040000C0040F0
:1023D000001000400014004080B483B000AF78606B
:1023E0000B46FB70FB78002B08D07B681B889BB2E8
:1023F00043F001039AB27B681A8007E07B681B8870
:102400009BB223F001039AB27B681A800C37BD4659
:102410005DF8047B704700BF80B483B000AF786084
:102420000B467B8013467B707B78002B08D07B6843
:102430009B899AB27B8813439AB27B689A8109E0A0
:102440007B689B899AB27B88DB439BB213409AB22C
:102450007B689A810C37BD465DF8047B704700BFEE
:1024600080B485B000AF78600B467B800023FB739F
:102470000023BB8100237B817B681B8A9AB27B8807
:102480001340BB817B689B899AB27B8813407B8118
:10249000BB89002B05D07B89002B02D00123FB7365
:1024A00001E00023FB73FB7B18461437BD465DF843
:1024B000047B704780B483B000AF78600B467B80AC
:1024C0007B88DB439AB27B681A820C37BD465DF885
:1024D000047B704781F0004102E000BF83F00043BD
:1024E00030B54FEA41044FEA430594EA050F08BFAF
:1024F00090EA020F1FBF54EA000C55EA020C7FEA73
:10250000645C7FEA655C00F0E2804FEA5454D4EBEF
:102510005555B8BF6D420CDD2C4480EA020281EAB9
:10252000030382EA000083EA010180EA020281EAF1
:102530000303362D88BF30BD11F0004F4FEA013143
:102540004FF4801C4CEA113102D0404261EB410152
:1025500013F0004F4FEA03334CEA133302D05242D8
:1025600063EB430394EA050F00F0A780A4F1010494
:10257000D5F1200E0DDB02FA0EFC22FA05F28018CE
:1025800041F1000103FA0EF2801843FA05F35941B4
:102590000EE0A5F120050EF1200E012A03FA0EFC33
:1025A00028BF4CF0020C43FA05F3C01851EBE3715D
:1025B00001F0004507D54FF0000EDCF1000C7EEB7A
:1025C00000006EEB0101B1F5801F1BD3B1F5001FB8
:1025D0000CD349085FEA30004FEA3C0C04F10104D7
:1025E0004FEA445212F5800F80F09A80BCF1004F00
:1025F00008BF5FEA500C50F1000041EB045141EA82
:10260000050130BD5FEA4C0C404141EB010111F482
:10261000801FA4F10104E9D191F0000F04BF01462D
:102620000020B1FA81F308BF2033A3F10B03B3F10B
:1026300020020CDA0C3208DD02F1140CC2F10C029B
:1026400001FA0CF021FA02F10CE002F11402D8BFF9
:10265000C2F1200C01FA02F120FA0CFCDCBF41EAC5
:102660000C019040E41AA2BF01EB0451294330BD94
:102670006FEA04041F3C1CDA0C340EDC04F1140471
:10268000C4F1200220FA04F001FA02F340EA030048
:1026900021FA04F345EA030130BDC4F10C04C4F18E
:1026A000200220FA02F001FA04F340EA030029466E
:1026B00030BD21FA04F0294630BD94F0000F83F4B8
:1026C000801306BF81F480110134013D4EE77FEA9B
:1026D000645C18BF7FEA655C29D094EA050F08BFE7
:1026E00090EA020F05D054EA000C04BF19461046C8
:1026F00030BD91EA030F1EBF0021002030BD5FEA0C
:10270000545C05D14000494128BF41F0004130BD33
:1027100014F580043CBF01F5801130BD01F0004587
:1027200045F0FE4141F470014FF0000030BD7FEAFA
:10273000645C1ABF194610467FEA655C1CBF0B46F5
:10274000024650EA013406BF52EA033591EA030F0C
:1027500041F4002130BD00BF90F0000F04BF002104
:10276000704730B54FF4806404F132044FF0000537
:102770004FF0000150E700BF90F0000F04BF0021B0
:10278000704730B54FF4806404F1320410F0004516
:1027900048BF40424FF000013EE700BF42004FEA11
:1027A000E2014FEA31014FEA02701FBF12F07F438E
:1027B00093F07F4F81F06051704792F0000F14BF8B
:1027C00093F07F4F704730B54FF4607401F00045CF
:1027D00021F0004120E700BF50EA010208BF704726
:1027E00030B54FF000050AE050EA010208BF70471B
:1027F00030B511F0004502D5404261EB41014FF484
:10280000806404F132045FEA915C3FF4DCAE4FF087
:1028100003025FEADC0C18BF03325FEADC0C18BF6E
:10282000033202EBDC02C2F1200300FA03FC20FABF
:1028300002F001FA03FE40EA0E0021FA02F114440C
:10284000C1E600BF70B54FF0FF0C4CF4E06C1CEA21
:1028500011541DBF1CEA135594EA0C0F95EA0C0F96
:1028600000F0DEF82C4481EA030621EA4C5123EA09
:102870004C5350EA013518BF52EA033541F4801138
:1028800043F4801338D0A0FB02CE4FF00005E1FBEB
:1028900002E506F00042E0FB03E54FF00006E1FB35
:1028A00003569CF0000F18BF4EF0010EA4F1FF0478
:1028B000B6F5007F64F5407404D25FEA4E0E6D41B8
:1028C00046EB060642EAC62141EA55514FEAC520C9
:1028D00040EA5E504FEACE2EB4F1FD0C88BFBCF545
:1028E000E06F1ED8BEF1004F08BF5FEA500E50F1F6
:1028F000000041EB045170BD06F0004646EA0101BC
:1029000040EA020081EA0301B4EB5C04C2BFD4EBED
:102910000C0541EA045170BD41F480114FF0000EE6
:10292000013C00F3AB8014F1360FDEBF002001F054
:10293000004170BDC4F10004203C35DA0C341BDCCE
:1029400004F11404C4F1200500FA05F320FA04F0A0
:1029500001FA05F240EA020001F0004221F00041D4
:1029600010EBD37021FA04F642EB06015EEA430E47
:1029700008BF20EAD37070BDC4F10C04C4F1200577
:1029800000FA04F320FA05F001FA04F240EA02002A
:1029900001F0004110EBD37041F100015EEA430EFB
:1029A00008BF20EAD37070BDC4F1200500FA05F21B
:1029B0004EEA020E20FA04F301FA05F243EA02039A
:1029C00021FA04F001F0004121FA04F220EA0200A9
:1029D00000EBD3705EEA430E08BF20EAD37070BDEF
:1029E00094F0000F0FD101F00046400041EB0101CF
:1029F00011F4801F08BF013CF7D041EA060195F0B1
:102A0000000F18BF704703F00046520043EB03036A
:102A100013F4801F08BF013DF7D043EA0603704757
:102A200094EA0C0F0CEA135518BF95EA0C0F0CD062
:102A300050EA410618BF52EA4306D1D181EA0301A8
:102A400001F000414FF0000070BD50EA410606BFA2
:102A50001046194652EA430619D094EA0C0F02D1E7
:102A600050EA013613D195EA0C0F05D152EA03362C
:102A70001CBF104619460AD181EA030101F000414A
:102A800041F0FE4141F470014FF0000070BD41F093
:102A9000FE4141F4780170BD70B54FF0FF0C4CF46D
:102AA000E06C1CEA11541DBF1CEA135594EA0C0F8C
:102AB00095EA0C0F00F0A7F8A4EB050481EA030ED9
:102AC00052EA03354FEA013100F088804FEA0333C0
:102AD0004FF0805545EA131343EA12634FEA02228E
:102AE00045EA111545EA10654FEA00260EF000414F
:102AF0009D4208BF964244F1FD0404F5407402D2A1
:102B00005B084FEA3202B61A65EB03055B084FEA31
:102B100032024FF480104FF4002CB6EB020E75EB2E
:102B2000030E22BFB61A754640EA0C005B084FEA56
:102B30003202B6EB020E75EB030E22BFB61A7546D3
:102B400040EA5C005B084FEA3202B6EB020E75EB1E
:102B5000030E22BFB61A754640EA9C005B084FEA96
:102B60003202B6EB020E75EB030E22BFB61A7546A3
:102B700040EADC0055EA060E18D04FEA051545EA92
:102B800016754FEA06164FEAC30343EA52734FEA3B
:102B9000C2025FEA1C1CC0D111F4801F0BD141EAB4
:102BA00000014FF000004FF0004CB6E711F4801F19
:102BB00004BF01430020B4F1FD0C88BFBCF5E06FF9
:102BC0003FF6AFAEB5EB030C04BFB6EB020C5FEA09
:102BD000500C50F1000041EB045170BD0EF0004E5E
:102BE0004EEA113114EB5C04C2BFD4EB0C0541EA90
:102BF000045170BD41F480114FF0000E013C90E68D
:102C000045EA060E8DE60CEA135594EA0C0F08BF50
:102C100095EA0C0F3FF43BAF94EA0C0F0AD150EA4F
:102C200001347FF434AF95EA0C0F7FF425AF1046E2
:102C300019462CE795EA0C0F06D152EA03353FF40A
:102C4000FDAE1046194622E750EA410618BF52EA87
:102C500043067FF4C5AE50EA41047FF40DAF52EA5B
:102C600043057FF4EBAE12E74FEA410212F5001282
:102C700015D211D56FF47873B3EB625212D94FEAC3
:102C8000C12343F0004343EA505311F0004F23FAAD
:102C900002F018BF404270474FF00000704750EA02
:102CA000013005D111F0004008BF6FF000407047BF
:102CB0004FF00000704700BF20F0030110F0030048
:102CC000C0F1000051F8043B00F1040C4FEACC0CB9
:102CD0006FF000021CBF22FA0CF213434FF0010CFC
:102CE0004CEA0C2C4CEA0C4CA3EB0C0222EA03023B
:102CF00012EACC1204BF51F8043B0430F4D0C2F104
:102D0000000102EA0102B2FA82F2C2F11F0200EBF4
:102D1000D20070474F464620504F57455220253429
:102D20006425250020616E676C65202533642A00C8
:102D30004F4E20504F574552202534642525000022
:102D4000253373636D20616E676C65202533642ABB
:0F2D5000000000002563256325632563256300CC
:102D5F00B0040000010000000100000000000000AE
:102D6F00010203040102030406070809007A030A9B
:102D7F00000000000000000001020304060708091C
:0400000508000000EF
:00000001FF
